:020000040800F2
:10000000F0AF00202903000859420008CF3B000848
:1000100055420008F109000865540008000000007E
:10002000000000000000000000000000690200085D
:10003000AF0C000800000000C5020008DD49000800
:100040004303000843030008430300084303000878
:100050004303000843030008430300084303000868
:100060004303000843030008430300084303000858
:10007000A10B0008430300084303000843030008E2
:100080004303000843030008430300084303000838
:100090005D0A00084303000843030008F50C00084C
:1000A0004303000843030008430300084303000818
:1000B000DD4A000843030008430300084303000827
:1000C00043030008430300084303000843030008F8
:1000D00043030008895200084303000899520008AE
:1000E00043030008430300084303000843030008D8
:1000F00043030008430300084303000843030008C8
:1001000043030008430300084303000843030008B7
:1001100043030008430300084303000843030008A7
:100120004303000843030008B10B00084303000821
:100130004303000843030008430300084303000887
:10014000E50A0008430300084303000843030008CE
:100150004303000843030008C10B000843030008E1
:100160004303000843030008430300084303000857
:100170004303000843030008430300080000000095
:10018000430300084303000800F002F800F05CF8A5
:100190000AA090E8000C82448344AAF10107DA45E2
:1001A00001D100F051F8AFF2090EBAE80F0013F0D8
:1001B000010F18BFFB1A43F001031847F86E000047
:1001C000186F00000A444FF0000C10F8013B13F0C8
:1001D000070408BF10F8014B1D1108BF10F8015BA0
:1001E000641E05D010F8016B641E01F8016BF9D193
:1001F00013F0080F1EBF10F8014BAD1C0C1B09D1EA
:100200006D1E58BF01F801CBFAD505E014F8016B5B
:1002100001F8016B6D1EF9D59142D6D370470000ED
:100220000023002400250026103A28BF78C1FBD8FF
:10023000520728BF30C148BF0B6070471FB506F09A
:10024000DDFC1FBD10B510BD00F091F91146FFF7A0
:10025000F5FF05F067FC00F0AFF903B4FFF7F2FF1C
:1002600003BC00F0B3F900002C4B19680868B0E833
:10027000F04F80F30988BFF36F8F4FF0000080F3D9
:10028000118870470000000008480068006880F38B
:1002900008884FF0000080F3148862B661B6BFF39F
:1002A0004F8FBFF36F8F00DF00BF00BF08ED00E08E
:1002B000DFF80C00016841F470010160704700BF75
:1002C00088ED00E0EFF30980BFF36F8F134B1A68DE
:1002D0001EF0100F08BF20ED108A20E9F04F1060CB
:1002E00009B44FF0500080F31188BFF34F8FBFF374
:1002F0006F8F06F09BF94FF0000080F3118809BC66
:1003000019680868B0E8F04F1EF0100F08BFB0EC95
:10031000108A80F30988BFF36F8F7047980200201E
:10032000EFF30580704700000948804709480047FF
:10033000FEE7FEE7FEE7FEE7FEE7FEE7FEE7FEE795
:10034000FEE7FEE704480549054A064B70470000F2
:10035000C94A000889010008F06F0020F0AF0020B2
:10036000F08F0020F08F002053EA020C00F069802B
:100370002DE9F04B4FF00006002B1FBFB3FA83F5B9
:1003800003FA05F424FA05F65E4012BF1643B2FAEA
:1003900082F502FA05F4C5F120051EBF22FA05FC1C
:1003A00044EA0C04203556EA044C4FEA144418BFC2
:1003B000641C4FF000084FF00009904271EB030CF1
:1003C00039D3002919BFB1FA81F701FA07F6B0FA5B
:1003D00080F700FA07F6C7F120071EBF20FA07FCD6
:1003E00046EA0C062037B6FBF4FCA7EB0507103FE6
:1003F00007F01F0BCBF120060CFA0BFB2CFA06F6CC
:1004000044BFB3460026202FA4BF5E464FF0000B2A
:100410005BEA060C08BF4FF0010B19EB0B09ABFBB5
:10042000027C48EB0608C01B06FB02CC0BFB03CC8E
:1004300071EB0C01C1E70B46024641464846BDE858
:10044000F08B13B54FF000004FF00001AFF30080C8
:10045000BDE81C40704710B5203AC0F00B80B1E8F1
:100460001850203AA0E81850B1E81850A0E81850E9
:10047000BFF4F5AF5FEA027C24BFB1E81850A0E8F2
:10048000185044BF18C918C0BDE810405FEA827C0C
:1004900024BF51F8043B40F8043B08BF7047D20723
:1004A00028BF31F8023B48BF11F8012B28BF20F8C4
:1004B000023B48BF00F8012B704702F0FF0343EAFC
:1004C000032242EA024200F002B84FF0000204297F
:1004D000C0F0128010F0030C00F01B80CCF1040C73
:1004E000BCF1020F18BF00F8012BA8BF20F8022BA7
:1004F000A1EB0C0100F00DB85FEAC17C24BF00F84D
:10050000012B00F8012B48BF00F8012B70474FF07A
:10051000000200B5134694469646203922BFA0E853
:100520000C50A0E80C50B1F12001BFF4F7AF09075F
:1005300028BFA0E80C5048BF0CC05DF804EB890050
:1005400028BF40F8042B08BF704748BF20F8022B93
:1005500011F0804F18BF00F8012B704770477047AB
:1005600070470000004870478C6F00207047754648
:10057000FFF7F8FFAE4605006946534620F0070036
:10058000854618B020B5FFF7DDFEBDE820404FF0EE
:1005900000064FF000074FF000084FF0000B21F06D
:1005A0000701AC46ACE8C009ACE8C009ACE8C0093A
:1005B000ACE8C0098D46704710B50446AFF3008023
:1005C0002046BDE81040FFF748BE00000149182052
:1005D000ABBEFEE72600020010B501221021024842
:1005E00001F01EFC10BD00000000024010B500220A
:1005F0001021024801F014FC10BD00000000024070
:1006000070B50025FFF7F2FF802000F04DF955206E
:1006100000F04AF9552000F047F90546FFF7DCFFE6
:10062000962000F051FBFFF7E1FF802000F03CF93D
:10063000552000F039F9552000F036F90546FFF74E
:10064000CBFF962000F040FBFFF7D0FFB6217E20C5
:1006500000F03CF9FFF7C0FF502000F029FBFFF746
:10066000C5FF802000F020F9552000F01DF955202D
:1006700000F01AF90546FFF7AFFF962000F024FBC3
:10068000FFF7B4FF802000F00FF9552000F00CF9BF
:10069000552000F009F90546FFF79EFF962000F06F
:1006A00013FB1E2D01D0FF2070BD002434E0FFF7A6
:1006B0009DFF04EB44021A4B1A44517804EB4402A8
:1006C000985C00F003F9FFF787FF962000F0FCFA32
:1006D000FFF78CFF04EB4401114A515C41F08000AC
:1006E00000F0E2F8552000F0DFF8552000F0DCF8CB
:1006F0000546FFF771FF962000F0E6FA04EB440090
:10070000074908444078A84204D004EB4400084458
:100710008078C9E7601CC4B2062CC8DB0020C3E7A0
:100720004801002010B501221146024801F078FB73
:1007300010BD00000004024010B500220121024853
:1007400001F06EFB10BD00000004024038B500202F
:100750000090FFF7F1FF6946002000F099F8FFF7DD
:10076000E1FF962000F0B0FAFFF7E6FF69460020AF
:1007700000F08EF8FFF7D6FF962000F0A5FAFFF7FD
:10078000DBFFB621142000F0A1F8FFF7CBFF5020CB
:1007900000F08EFAFFF7D0FF6946002000F078F8ED
:1007A000FFF7C0FF962000F08FFAFFF7C5FF6946FC
:1007B000002000F06DF8FFF7B5FF962000F084FAF6
:1007C0009DF800000F2801D0FF2038BD00242FE045
:1007D000FFF7B2FF04EB4402174B1A44517804EBC5
:1007E0004402985C00F072F8FFF79CFF962000F03E
:1007F0006BFAFFF7A1FF04EB44010F4A505C694616
:1008000000F046F8FFF78EFF962000F05DFA04EB4B
:1008100044000949084440789DF80010884205D0FA
:1008200004EB4400044908448078CEE7601CC4B25D
:10083000062CCDDB0020C8E75A01002010B50024AB
:1008400000BFFFF7DDFE0443FFF780FF04430220F3
:1008500000F02EFA002CF4D1014800F003F810BD8E
:10086000540500209FED070A80ED0C0A9FED060A53
:1008700080ED0D0A9FED050A80ED0E0A0121017041
:10088000704700000BA1433BE5F5DF39D5BCA03A2A
:1008900070B504460D4644F0800000F005F8552080
:1008A00000F002F8287070BD01B582B00020019000
:1008B0004FF47A70012301AA02A90090024802F0C5
:1008C00059F89DF804000EBD7C0B002070B505465C
:1008D0000C462846FFF7E8FF2046FFF7E5FF70BD0E
:1008E00000B58BB0282101A8FFF711FE0120099067
:1008F00000200790012008900020019002900390B2
:100900000490069005900A9001A90D4800F022FB82
:1009100008B100F0F4F90A4800F02DFF0221084860
:1009200000F058FA0E200A90064800F024FF022139
:10093000044800F04FFA0E200A900BB000BD0000F2
:100940002C0B0020540B00201249096841F08071E3
:10095000104A11600021104A51601146096841F0A7
:10096000010111600D4941430D4A116011460968AA
:100970004FF47A72B1FBF2F10A4A11600849096832
:10098000064AB1FBF2F1084A11600021074A1160E2
:1009900070470000FCED00E0001000E040420F0056
:1009A000F0000020F4000020F8000020FC000020EF
:1009B00008B52420009005480068011D044BA3F1F0
:1009C0002402024804F070FC08BD0000F00C002076
:1009D000B406002010B50021034802F02DFD0021CF
:1009E000024802F029FD10BD640C0020D40B002049
:1009F00000BFFEE700BF1748808A000A1649087743
:100A00001448017D144841771248C08A010A1248EF
:100A100081771048817D1048C1770E48008B010A0C
:100A20000D4880F820100B48017E0B4880F82110FB
:100A30000848408B010A084880F822100548817E4A
:100A4000054880F8231004F06EFC012005F0ABF897
:100A5000D1E700000C030020B400002010B50248CC
:100A600000F0C8FB10BD00002C0B002070B5044640
:100A70000D460C4A2946204604F0B2FF094A1C32B2
:100A80002946204604F0ACFF064A38322946204663
:100A900004F0A6FF034A54322946204604F0A0FF82
:100AA00070BD00006C01002000BF0C488089000A66
:100AB0000B4908770948017B094841770748C089F5
:100AC000010A074881770548817B0548C17704F012
:100AD0002AFC012005F067F8E7E700007004002019
:100AE0009000002010B5024800F084FB10BD00000B
:100AF000540B002070B504460D4604B105B970BD15
:100B0000064A2946204604F06BFF044A1C32294657
:100B1000204604F065FF00BFF1E70000DC01002083
:100B200000F018F800BF0948807A012806D100209B
:100B30000749888288828882888202E0044803F01C
:100B400025FC012005F02FF8EDE700004C02002005
:100B50000C03002010B50A4A01210A4803F0B2FB39
:100B6000094A0121094803F0ADFB094A012109485E
:100B700003F0A8FB084A0121084803F0A3FB10BDBD
:100B80000000002030030020180000208003002017
:100B900030000020D0030020480000202004002066
:100BA00010B5024800F088FE10BD0000F40D0020D2
:100BB00010B5024800F080FE10BD0000340D00208A
:100BC00010B5024800F078FE10BD0000940D002022
:100BD0000146087810381823B0FBF3F20848805C0F
:100BE000C865032A05D908686FF30900001D8865E8
:100BF00003E008686FF309008865886D704700009E
:100C00001C700008014600208A6A8B69CBB932B19A
:100C1000012A0DD0022A03D0032A10D10EE000BF12
:100C2000CB6A03F08073B3F1807F00D1012007E02D
:100C3000CB6AB3F1C07F00D1012001E000E000BF2A
:100C400034E08B69B3F5005F1AD132B1012A07D0C5
:100C5000022A03D0032A11D10AE000BF01200EE0CE
:100C6000CB6A03F08073B3F1807F00D1012006E0EE
:100C7000CB6AB3F1C07F00D1012000E000BF15E0D6
:100C800032B1012A05D0022A04D0032A0CD103E094
:100C900000BF00BF012008E0CB6A03F08073B3F10E
:100CA000807F00D1012000E000BF00BF7047704787
:100CB00070B5044601F0BAF8054600BF01F0B6F879
:100CC000401BA042FAD370BD70B5044602F06DFF20
:100CD000054600BF02F069FF401BA042FAD370BD79
:100CE00000BF034803F055FD052004F05CFFF8E762
:100CF0004C02002010B5202000F08AFF10BD72B613
:100D000000BFFEE710B500BF012004F04CFFFBE779
:100D100010B504462148408800EB4000400000B276
:100D200020811E48408800EB4000400001B26181F4
:100D30001B48B0F90A0001EE100AB8EEC11AF0EE35
:100D4000410AB4F9080001EE100AB8EEC11AB0EE7B
:100D5000410A144804F0D6FCBDEEC00A10EE100A99
:100D600000B2A0810E48B0F9260001EE100AB8EEDC
:100D7000C11AF0EE410AB4F90A0001EE100AB8EE09
:100D8000C11AB0EE410A084804F0BCFCBDEEC00A2E
:100D900010EE100A01B2E18110BD00004C020020EB
:100DA000DC0100208C040020DC04002010B5054A82
:100DB0000121054803F086FA044A0121044803F0A2
:100DC00081FA10BD600000208C0400207800002013
:100DD000DC04002010B5024692F82030012B01D02F
:100DE000022B06D110684069084314686061002036
:100DF00010BD506A40F4802050620120F8E7F0B541
:100E000004460D461E4694F8207020688368A86842
:100E100000B900E000BF012F01D0022F7CD103F008
:100E2000806030B903F0006018B903F080500028EA
:100E300073D0C3F30161022905D9606A40F4000050
:100E400060620120F0BD012088403060A86860B970
:100E5000B5F800C0E86840EA4C5C206800F5C07056
:100E600000EB0110C0F800C00FE0D5E901C040EA76
:100E7000CC00D5F80CC040EA0C00D4F800C00CF54A
:100E8000C07C0CEB011CCCF80000D5F810C0206829
:100E900000F5C07000EB0110C0F804C0287D0128E7
:100EA0000ED1206800F5C07000EB0110406840F4DE
:100EB000807C206800F5C07000EB0110C0F804C011
:100EC000D079000692F806C040EA0C4092F805C0BE
:100ED00040EA0C2C10794CEA000C206800F5C07038
:100EE00000EB0110C0F80CC0D078000692F802C0E8
:100EF00040EA0C4092F801C040EA0C2092F800C091
:100F000040EA0C00D4F800C00CF5C07C0CEB011CCE
:100F1000CCF80800206801E016E00FE000F5C07092
:100F200000EB0110006840F0010C206800F5C07073
:100F300000EB0110C0F800C0002083E7606A40F4B5
:100F40000010606201207DE7606A40F480206062EA
:100F5000012077E7F0B504460A46216894F820504E
:100F6000012D01D0022D7ED1424901F500710868A2
:100F700040F001000860086820F47C5008600868B0
:100F8000566A40EA06200860107D00F01F06012026
:100F900000FA06F3C8699843C861A1F50071D069E9
:100FA000C8B9D1F80C029843C1F80C02908880B2FD
:100FB000968940EA064601F51070576940F8376097
:100FC000108880B2168940EA064601F5107057690C
:100FD00000EBC7004660D069012819D1D1F80C0296
:100FE0001843C1F80C02908880B2168840EA064681
:100FF00001F51070576940F83760908980B2168902
:1010000040EA064601F51070576900EBC7004660DC
:10101000906928B9D1F804029843C1F8040204E0A9
:10102000D1F804021843C1F80402106928B9D1F8B4
:1010300014029843C1F8140204E0D1F814021843D2
:10104000C1F81402106A012804D1D1F81C02184317
:10105000C1F81C02D1F8000220F00100C1F8000222
:101060000020F0BDFFE7606A40F48020606201204C
:10107000F7E7000000640040704770B5044694F83C
:101080002050012D01D0022D7DD151B92068C068BA
:1010900000F0030080B9606A40F400106062012033
:1010A00070BD2068006900F0030028B9606A40F450
:1010B000001060620120F3E7206800F5D87000EBB3
:1010C0000110006800F004009060906840B920684A
:1010D00000F5D87000EB01100068400D106007E0CB
:1010E000206800F5D87000EB01100068C00850605F
:1010F000206800F5D87000EB0110006800F00200D5
:10110000D060206800F5D87000EB0110406800F056
:101110000F001061206800F5D87000EB01104068E6
:1011200000F47F40000A9061206800F5D87000EB61
:1011300001104068000C5061206800F5D87000EB89
:10114000011080681870206800F5D87000EB01105D
:10115000806800F47F40000A5870206800F5D8705D
:1011600000EB0110806800F47F00000C987020688C
:1011700000F5D87000EB01108068000ED870206870
:1011800000F5D87000E02FE000EB0110C068187186
:10119000206800F5D87000EB0110C06800F47F40B3
:1011A000000A5871206800F5D87000EB0110C06883
:1011B00000F47F00000C9871206800F5D87000EBF7
:1011C0000110C068000ED87131B92068C06840F0C5
:1011D00020002668F06005E02068006940F02000EB
:1011E0002668306100205BE7606A40F4802060621E
:1011F000012055E72DE9F05F044600252068466987
:101200002068D0F80490206887682068D0F80CA087
:101210002068D0F810B02068D0F8188006F00100DF
:10122000002855D007F00100C0B101202168886076
:1012300007F0020018B1204600F0CDFA0EE007F0EA
:10124000040010B145F4006508E007F0080010B193
:1012500045F4805502E0204600F0BCFA07F48070A7
:10126000C8B14FF480702168886007F4007018B12D
:10127000204600F0B2FA0EE007F4806010B145F4A9
:10128000005508E007F4006010B145F4804502E025
:10129000204600F0A1FA07F48030C8B14FF4803046
:1012A0002168886007F4003018B1204600F097FAF2
:1012B0000EE007F4802010B145F4004508E007F483
:1012C000002010B145F4803502E0204600F086FA97
:1012D00006F0080038B10AF0100020B145F400759E
:1012E00010202168C86006F0040040B10AF0080030
:1012F00028B108202168C860204600F00DFA06F0E9
:10130000020038B12068C06800F0030010B1204628
:1013100000F004FA06F0400038B10BF0100020B1E4
:1013200045F4806510202168086106F0200040B176
:101330000BF0080028B1082021680861204600F061
:1013400017FA06F0100038B12068006900F00300B9
:1013500010B1204600F00DFA06F4003040B109F05B
:10136000100028B1102021684860204600F002FAE1
:1013700006F4803040B109F0080028B10820216847
:101380004860204600F02CFA06F4004088B309F0CB
:10139000040078B306F4807020B108F0010008B1B1
:1013A00045F0010506F4007020B108F0020008B114
:1013B00045F0020506F4806020B108F0040008B191
:1013C00045F0040506F40060A0B108F0700088B193
:1013D00008F07000402817D006DC10280BD0202819
:1013E0000CD0302819D10CE0502810D0602814D12E
:1013F00010E01DE019E045F008050FE045F010058C
:101400000CE045F0200509E045F0400506E045F018
:10141000800503E045F4807500E000BF00BF206850
:10142000806920F07000216888610420216848608C
:101430002DB1606A284360622046FFF71DFEBDE8BB
:10144000F09F70B504460CB9012070BD94F82000DF
:1014500010B9204600F0B0F82068006840F00100A4
:101460002168086000F0E2FC05460DE000F0DEFCBB
:10147000401B0A2808D9606A40F4003060620520E9
:1014800084F820000120E0E72068406800F00100B7
:101490000028EBD02068006820F002002168086076
:1014A00000F0C4FC05460DE000F0C0FC401B0A281B
:1014B00008D9606A40F400306062052084F820009A
:1014C0000120C2E72068406800F002000028EBD14C
:1014D000207E012806D12068006840F08000216845
:1014E000086005E02068006820F08000216808603E
:1014F000607E012806D12068006840F04000216825
:10150000086005E02068006820F04000216808605D
:10151000A07E012806D12068006840F020002168E4
:10152000086005E02068006820F02000216808605D
:10153000E07E012806D12068006820F010002168B4
:10154000086005E02068006840F01000216808602D
:10155000207F012806D12068006840F0080021683B
:10156000086005E02068006820F008002168086035
:10157000607F012806D12068006840F004002168DF
:10158000086005E02068006820F004002168086019
:10159000D4E902010843216908436169084361688D
:1015A000491E08432168C86100206062012084F858
:1015B0002000002049E7000010B586B00446142141
:1015C00001A8FEF7A4FF4E492068884241D14D484A
:1015D0000068401C4B4908600846006801280FD18C
:1015E00000BF002000904848006840F00070464965
:1015F00008600846006800F00070009000BF00BF5F
:1016000000BF0020009040481038006840F00800FB
:101610003D49103908600846006800F00800009055
:1016200000BF00BF03200190022002900020039021
:10163000032004900920059001A9344800F0F6FA2F
:1016400000220521142000F0B5FC142000F0A2FCBB
:1016500054E02F492068884250D100BF00200090FC
:101660002948006840F08060274908600846006803
:1016700000F08060009000BF00BF22480068401C5E
:10168000204908600846006801280FD100BF0020EB
:1016900000901D48006840F000701B490860084633
:1016A000006800F00070009000BF00BF00BF002085
:1016B000009015481038006840F0020012491039B7
:1016C00008600846006800F00200009000BF00BFFC
:1016D00060200190022002900020039003200490DB
:1016E0000920059001A90B4800F0A0FA002205216D
:1016F000402000F05FFC402000F04CFC06B010BD24
:10170000006400409002002040380240000C02407B
:1017100000680040000402407047000010B5044615
:101720001049206888420CD10F4BA3F11C02002104
:101730002046FFF7A2FC0C49A1F11C00FFF796F927
:101740000FE00A49206888420BD1074BA3F11C0225
:1017500000212046FFF791FC0349A1F11C00FFF78F
:10176000C9F910BD006400404C050020006800402D
:1017700070477047704770B5044694F82000012800
:1017800022D1022084F820002068006820F00100A7
:101790002168086000F04AFB05460DE000F046FBBA
:1017A000401B0A2808D9606A40F4003060620520B6
:1017B00084F82000012070BD2068406800F001001E
:1017C0000028EBD16062F6E7606A40F400206062B6
:1017D0000120F0E7704770477047704770477047C7
:1017E000704770B50446A56D00F020FB064694F8DE
:1017F0003500022808D08020606500BF002084F8F2
:10180000340000BF012070BD2068006820F0160081
:10181000216808602068406920F0800021684861E4
:10182000206C08B9A06C28B12068006820F008007E
:10183000216808602068006820F0010021680860C5
:1018400010E000F0F3FA801B05280BD9202060651A
:10185000032084F8350000BF002084F8340000BF66
:101860000320D0E72068006800F001000028E8D1DC
:1018700094F85C103F208840A860012084F835006F
:1018800000BF002084F8340000BF00BFBBE7014662
:1018900091F83500022803D0802048650120704768
:1018A000052081F835000868006820F001000A680A
:1018B00010600020F3E70000F8B504460020009017
:1018C0008C4800684FF41651B0FBF1F7A56D2E68F7
:1018D00094F85C1008208840304098B12068006877
:1018E00000F0040070B12068006820F00400216856
:1018F000086094F85C1008208840A860606D40F093
:101900000100606594F85C1001208840304068B1A7
:101910002068406900F0800040B194F85C1001201C
:101920008840A860606D40F00200606594F85C102B
:1019300004208840304068B12068006800F0020050
:1019400040B194F85C1004208840A860606D40F0BD
:101950000400606594F85C1010208840304078B333
:101960002068006800F0080050B394F85C10102064
:101970008840A8602068006800F4802080B120685A
:10198000006800F4002028B9206CC8B12046216C02
:10199000884715E0A06C98B12046A16C88470FE0FD
:1019A0002068006800F4807028B92068006820F082
:1019B000080021680860206C10B12046216C88471F
:1019C00094F85C10202088403040002865D02068C2
:1019D000006800F0100000285FD094F85C10202010
:1019E0008840A86094F83500052828D12068006850
:1019F00020F01600216808602068406920F080000F
:101A000021684861206C08B9A06C28B12068006882
:101A100020F008002168086094F85C103F2088409E
:101A2000A860012084F8350000BF002084F834004D
:101A300000BF206D10B12046216D8847F8BD206899
:101A4000006800F4802080B12068006800F4002065
:101A500028B9606C10B12046616C88471DE0E06BCE
:101A6000D8B12046E16B884717E02068006800F491
:101A7000807068B92068006820F010002168086054
:101A8000012084F8350000BF002084F8340000BF36
:101A9000E06B10B12046E16B8847606D38B3606D34
:101AA00000F00100F0B1052084F8350020680068DE
:101AB00020F001002168086000BF0098401C0090E1
:101AC000B84200D905E02068006800F00100002855
:101AD000F3D100BF012084F8350000BF002084F856
:101AE000340000BFE06C10B12046E16C884700BFB5
:101AF000A4E70000940200202DE9F04104460025EF
:101B000000F094F9074614B90120BDE8F081606A3D
:101B100000B100BF022084F8350000BF002084F827
:101B2000340000BF2068006820F0010021680860D0
:101B30000AE000F07BF9C01B052805D9202060656C
:101B4000032084F83500E0E72068006800F0010019
:101B50000028EED12068056821480540D4E901013C
:101B60000843E16808432169084361690843A169A2
:101B70000843E1690843216A08430543606A042871
:101B800003D1D4E90B0108430543206805602068B0
:101B9000456925F00705606A0543606A04280DD190
:101BA000A06A0543E06A48B12046FFF72BF828B148
:101BB00040206065012084F83500A6E72068456173
:101BC0002046FFF705F8064694F85C103F20884051
:101BD000B06000206065012084F83500002094E7A3
:101BE0003F8010F070B5044600F020F90646254607
:101BF000681C10B104480078054400BF00F016F9D5
:101C0000801BA842FAD370BD080300207047000073
:101C100010B5044604480068204020B10248046022
:101C20002046FFF7F3FF10BD143C0140F8B5024613
:101C30000B460025002400200021D6E0012606FAEC
:101C400001F51E6806EA0504AC4274D11E7906F05F
:101C50000306012E04D01E7906F00306022E13D1CE
:101C600090684F000326BE40B0434F00DE68BE4080
:101C700030439060506801268E40B0431E79C6F311
:101C800000168E40304350601E7906F00306032E86
:101C900009D0D0684F000326BE40B0434F009E6875
:101CA000BE403043D0601E7906F00306022E13D1E9
:101CB000CF0802F1200656F827004E07F70E0F2630
:101CC000BE40B0434F07FF0E1E69BE403043CF08F1
:101CD00002F1200646F8270010684F000326BE4098
:101CE000B0431E7906F003064F00BE40304310603B
:101CF0005E6806F44036002E76D000BF00260096BF
:101D00003C4E366846F480463A4F3E603E46366862
:101D100006F48046009600BF00BF374E8F0856F885
:101D200027008E07370F0F26BE40B043334EB24216
:101D300002D1002624E057E0314EB24201D1012603
:101D40001EE0304EB24201D1022619E02E4EB242C0
:101D500001D1032614E02D4EB24201D104260FE03A
:101D60002B4EB24201D105260AE02A4EB24201D1E1
:101D7000062605E0284EB24201D1072600E00826DB
:101D80008F073F0FBE4030431B4E8F0846F8270099
:101D9000224E3068A0435E6806F4801606B12043E8
:101DA0001E4E3060361D3068A0435E6806F4001693
:101DB00006B12043194E361D3060184E361F30686C
:101DC000A0435E6806F4003606B12043134E361F6A
:101DD0003060361F3068A0435E6806F4803606B176
:101DE00020430E4E083E3060491C1029FFF426AFF8
:101DF000F8BD0000443802400838014000000240AD
:101E00000004024000080240000C024000100240A2
:101E10000014024000180240001C0240083C01402F
:101E20000AB1816101E00B048361704701480068D9
:101E30007047000000030020034800680349097848
:101E4000084401490860704700030020080300208F
:101E500010B50D48006840F400700B490860084652
:101E6000006840F4806008600846006840F48070B4
:101E70000860032000F0DCF80F2000F007F800F005
:101E80005FF8002010BD0000003C02402DE9F04149
:101E900088B004460027B84600BF002001902448BF
:101EA000006840F00100224908600846006800F020
:101EB0000100019000BF00BF02A903A800F096F93D
:101EC000069F1FB900F0BAF9054602E000F0B6F926
:101ED00045001848B5FBF0F0A0F101084FF0804034
:101EE0001549086040F2E7311348C160C0F804802A
:101EF000002101618160816100F0E8FE064696B92B
:101F00000D4800F0ADFF06466EB91C2000F042F807
:101F1000102C07D2002221461C2000F04BF8074865
:101F2000046000E00126304608B0BDE8F081000002
:101F30004038024040420F00540E002004030020AD
:101F400008B500BF002000901148006840F48040B0
:101F50000F4908600846006800F48040009000BF08
:101F600000BF00BF00200090081F006840F08050B4
:101F7000091F08600846006800F08050009000BF0C
:101F800000BF00220F21901E00F014F808BD0000D1
:101F90004438024001460846002809DB00F01F03D0
:101FA00001229A4043099B0003F1E023C3F800217A
:101FB00000BF70472DE9F05F80460D4616460027AA
:101FC00003F058FA074639462A46334601F007001F
:101FD000C0F1070ABAF1040F02D94FF0040A01E078
:101FE000C0F1070AD14600F1040ABAF1070F02D284
:101FF0004FF0000A01E0A0F1030AD4464FF0010AB5
:102000000AFA09FAAAF1010A0AEA020A0AFA0CFA19
:102010004FF0010B0BFA0CFBABF1010B0BEA030BBE
:102020004AEA0B042146404603F02CFABDE8F09F33
:1020300000BF00F00702064B19684FF6FF03194076
:10204000044B0B4343EA0221014B196000BF704768
:102050000CED00E00000FA057047000070B5044682
:102060000D460CB9012070BD5848006800F007000B
:10207000A84209D255490D700846006800F00700D3
:10208000A84201D00120EEE7207800F002000228EB
:102090001DD1207800F00400042805D14C480068C8
:1020A00040F4E0504A490860207800F00800082811
:1020B00005D14748006840F46040454908604448FD
:1020C000006820F0F000A1680843414908602078CA
:1020D00000F00100A8B36068012807D13C48083827
:1020E0000068C0F34040B8B90120BCE7606802282E
:1020F00002D06068032807D1354808380068C0F36B
:10210000406048B90120AEE7314808380068C0F3A4
:10211000400008B90120A6E72D48006820F0030020
:10212000616808432A490860FFF780FE064609E017
:10213000FFF77CFE801B41F28831884202D90320E0
:1021400091E707E02248006800F00C006168B0EBFE
:10215000810FEDD11D48006800F00700A84209D9A1
:102160001A490D700846006800F00700A84201D027
:10217000012078E7207800F00400042807D11448F3
:10218000006820F4E050E1680843114908602078B5
:1021900000F00800082808D10D48006820F46040CD
:1021A000216940EAC1000A49086000F067F808495F
:1021B0000968C1F30311074A515CC8400649086029
:1021C00006480068FFF762FE00204CE7003C024032
:1021D0000838024004700008940200200403002024
:1021E00001200149C8647047000047420F22026085
:1021F0000D4A126802F0030242600B4A126802F0B4
:10220000F0028260084A126802F4E052C260064A94
:10221000126802F46042D2080261044A126802F0B5
:1022200007020A607047000008380240003C024084
:1022300001480068704700009402002000B5FFF7D5
:10224000F7FF04490968C1F38221034A515CC84081
:1022500000BD0000083802401470000800B5FFF708
:10226000E7FF04490968C1F34231034A515CC840A1
:1022700000BD000008380240147000082DE9F04746
:10228000002400250026A1462548006800F00C0027
:1022900020B1042805D008283AD105E0DFF8849061
:1022A00039E0DFF8849036E01D48001F006800F038
:1022B0003F041B48001F006800F4800078B11A48F2
:1022C0001749091F0968C1F38811A0FB0170014675
:1022D000224600233846FEF747F805460EE011482F
:1022E0000F49091F0968C1F38811A0FB017001465D
:1022F000224600233846FEF737F805460848001FF7
:102300000068C0F30140401C4600B5FBF6F902E04E
:10231000DFF8109000BF00BF4846BDE8F08700001E
:10232000083802400024F400001BB70010B506482E
:10233000006800F08000802805D1FFF78DFE802026
:102340000149891C087010BD0C380240F8B50446DC
:102350000CB90120F8BD207800F00100002874D0ED
:10236000F948006800F00C0004280DD0F648006819
:1023700000F00C00082813D1F348001F006800F497
:102380008000B0F5800F0BD1EF4808380068C0F32B
:102390004040002859D06068002856D10120D9E774
:1023A00000BF6068B0F5803F08D1E7480838006892
:1023B00040F48030E449083908601EE06068B0F5F8
:1023C000A02F0DD1E0480838006840F48020DE4995
:1023D000083908600846006840F4803008600CE066
:1023E000D9480838006820F48030D7490839086097
:1023F0000846006820F48020086000BF606890B143
:10240000FFF714FD054606E0FFF710FD401B6428AA
:1024100001D903209EE7CC4808380068C0F340404B
:102420000028F1D011E0FFF701FD054606E0FFF7B7
:10243000FDFC401B642801D903208BE7C248083803
:102440000068C0F340400028F1D1207800F002007D
:1024500002285FD1BC48006800F00C0058B1BA48AF
:10246000006800F00C0008281CD1B748001F006865
:1024700000F48000B0B9B44808380068C0F34000E8
:1024800020B1E068012801D0012063E7AE48083898
:10249000006820F0F800216940EAC100AA49083923
:1024A000086037E0E06800B30120A8490860FFF742
:1024B000BDFC054606E0FFF7B9FC401B022801D928
:1024C000032047E7A04808380068C0F34000002810
:1024D000F1D09D480838006820F0F800216940EAF2
:1024E000C10099490839086014E000209749086044
:1024F000FFF79CFC054606E0FFF798FC401B02280E
:1025000001D9032026E7904808380068C0F340004E
:102510000028F1D1207800F0080008282CD160694B
:10252000A8B101208A490860FFF780FC054606E053
:10253000FFF77CFC401B022801D903200AE78248F0
:102540006C300068C0F340000028F1D014E0002097
:102550007F490860FFF76AFC054606E0FFF766FC66
:10256000401B022801D90320F4E677486C3000684C
:10257000C0F340000028F1D1207800F004000428C6
:1025800070D1002770483830006800F0805090B952
:1025900000BF002000906C483830006840F0805048
:1025A0006949383108600846006800F080500090A2
:1025B00000BF00BF01276748006800F48070B0B911
:1025C0006448006840F4807062490860FFF72EFCA0
:1025D000054606E0FFF72AFC401B022801D903202C
:1025E000B8E65C48006800F480700028F2D000BFB4
:1025F000A068012808D154486830006840F0010004
:102600005149683108601DE0A06805280DD14E4889
:102610006830006840F004004B49683108600846A3
:10262000006840F0010008600CE04748683000682E
:1026300020F001004449683108600846006820F035
:102640000400086000BFA068A8B1FFF7EFFB0546D3
:1026500009E0FFF7EBFB401B41F28831884202D9C9
:10266000032077E626E0384868300068C0F3400071
:102670000028EED013E0FFF7D9FB054608E0FFF78E
:10268000D5FB401B41F28831884201D9032061E625
:102690002D4868300068C0F340000028EFD1012FBA
:1026A00007D129483830006820F080502649383159
:1026B000086000BFA069002845D02348006800F0EA
:1026C0000C0008285DD0A069022845D100201F49D0
:1026D0000866FFF7ABFB054606E0FFF7A7FB401BCC
:1026E000022801D9032035E6174808380068C0F3EE
:1026F00040600028F1D1D4E907010843616A40EA4B
:1027000081110122A06AC2EB500041EA00412C2055
:10271000005D41EA00600C49091F086001200B4977
:102720000866FFF783FB054606E0FFF77FFB401BCB
:10273000022801D903200DE6034808380068C0F3D9
:1027400040600028F1D049E00838024000004742CC
:10275000800E474200700040002021490866FFF7C4
:1027600065FB054606E0FFF761FB401B022801D927
:102770000320EFE51B480068C0F340600028F2D159
:102780002CE0A069012800D1E4E51648001D066888
:10279000A069012820D006F48001E06981421BD1A4
:1027A00006F03F01206A814216D147F6C0703040E2
:1027B000616AB0EB811F0FD106F440310122A06A9B
:1027C000C2EB5000B1EB004F06D106F070612C2037
:1027D000005DB1EB006F01D00120BBE50020B9E541
:1027E000000047420038024010B504460CB90120F1
:1027F00010BD606A38B96068B0F5827F00D105E02D
:102800000021E16102E00021216161610021A162FA
:1028100094F8510028B9002084F85000204600F0B8
:1028200047F8022084F851002068006820F040003A
:1028300021680860A08800F48270218901F40441B5
:102840000843A18901F400610843217C01F00201E1
:102850000843217D01F001010843218B01F400713F
:102860000843217F01F0380108432021095D01F070
:1028700080010843218D01F400510843216808605C
:102880000421A06901EA104094F8241001F010011D
:102890000843216848602068C06920F4006021680E
:1028A000C86100206065012084F8510000209FE786
:1028B00010B586B00446142101A8FDF728FE294969
:1028C000206888424CD100BF002000902648006854
:1028D00040F48050244908600846006800F48050A5
:1028E000009000BF00BF00BF002000901E481438B9
:1028F000006840F002001C4914390860084600686E
:1029000000F00200009000BF00BF00BF0020009058
:102910000846006840F0010008600846006800F0C2
:102920000100009000BF00BF18200190022002901B
:1029300000200390032004900520059001A90B4876
:10294000FFF774F98020019002200290002003908C
:10295000032004900520059001A90548FFF766F9BA
:1029600006B010BD0030014044380240000402406F
:10297000000002402DE9FF5F0446884691461D464F
:102980000E9E012002900020019000BF94F850009C
:10299000012803D1022004B0BDE8F09F012084F893
:1029A000500000BFFFF742FA074694F851B0606844
:1029B0000390AA46BBF1010F0BD00398B0F5827FBC
:1029C00004D1A06810B9BBF1040F02D0022001901D
:1029D000DBE0B8F1000F03D0B9F1000F00D015B95A
:1029E00001200190D1E094F85100042802D0052084
:1029F00084F8510000206065C4F83890E587A58709
:102A0000C4F83080E586A58620646064206800688C
:102A100000F04000402805D02068006840F04000E9
:102A200021680860E068B0F5006F4AD1606810B1B5
:102A3000BAF1010F09D1206B00882168C860206BB2
:102A4000801C2063E08E401EE08633E020688068B2
:102A500000F00200022810D1E08E70B10298012827
:102A60000BD1206B00882168C860206B801C20631C
:102A7000E08E401EE086002002902068806800F012
:102A8000010068B1E08F58B12068C068A16B088070
:102A9000A06B801CA063E08F401EE08701200290A5
:102AA000FFF7C4F9C01BB04204D3701C10B103205F
:102AB00001906AE0E08E0028C8D1E08F0028C5D1DF
:102AC0004AE0606810B1BAF1010F09D1206B0078BB
:102AD00021680873206B401C2063E08E401EE08656
:102AE00034E02068806800F00200022810D1E08EF7
:102AF00070B1029801280BD1206B0078216808730F
:102B0000206B401C2063E08E401EE0860020029077
:102B10002068806800F0010068B1E08F58B120683B
:102B2000C068A16B0870A06B401CA063E08F401EC2
:102B3000E08701200290FFF779F9C01BB04201D372
:102B4000701C00B916B9032001901EE0E08E002829
:102B5000C7D1E08F0028C4D13A463146204601F063
:102B60009BFE20B101200190202060650DE0A0684F
:102B700050B900BF002000902068C0680090206815
:102B80008068009000BF00BF00BF012084F85100A2
:102B900000BF002084F8500000BF0198FBE670479A
:102BA000704710B50346002200BF93F83C0001288F
:102BB00001D1022010BD012083F83C0000BF22F0AB
:102BC000FF00CC6840EA040222F440708C6840EABE
:102BD000040222F480604C6840EA040222F400609F
:102BE0000C6840EA040222F480500C6940EA0402B6
:102BF00022F400504C6940EA040222F48040CC697F
:102C000040EA04021868426400BF002083F83C00D8
:102C100000BF00BFCEE7000030B502460B4600BF44
:102C200092F83C00012801D1022030BD012082F839
:102C30003C0000BF022082F83D0010684468106824
:102C4000816824F070041868044310684460184DCB
:102C50001068A8421BD01068B0F1804F17D0154DF6
:102C60001068A84213D0144D1068A8420FD0134D1D
:102C70001068A8420BD0124D1068A84207D0114D21
:102C80001068A84203D0104D1068A84205D121F069
:102C900080015868014310688160012082F83D007E
:102CA00000BF002082F83C0000BF00BFBDE700006D
:102CB000000001400004004000080040000C0040FB
:102CC00000040140004001400018004010B50446D7
:102CD0000CB9012010BD94F83D0028B9002084F8FB
:102CE0003C00204600F026F8022084F83D00211D1B
:102CF000206801F0FBFE012084F8460000BF84F844
:102D00003E0001213F200155402001554120015541
:102D100000BF00BF012084F8420043200155442039
:102D200001554520015500BF012084F83D000020D9
:102D3000D0E7000008B51F4A016891420FD100BFDB
:102D4000002100911C49096841F001011A4A1160F3
:102D50001146096801F00101009100BF29E0174AFE
:102D60000168914211D100BF002100911249091F51
:102D7000096841F00401104A121F116011460968E8
:102D800001F00401009100BF13E00D4A0168914277
:102D90000FD100BF002100910749096841F40031BB
:102DA000054A11601146096801F40031009100BF25
:102DB00000BF08BD00000140443802400008004048
:102DC00000440140014691F83D00012801D0012056
:102DD0007047022081F83D001A4B086898421BD0CA
:102DE0000868B0F1804F17D0174B0868984213D08D
:102DF000164B086898420FD0154B086898420BD0C4
:102E0000144B0868984207D0134B0868984203D0C7
:102E1000124B086898420CD10868806800F00702DD
:102E2000062A0CD00868006840F001000B681860A2
:102E300005E00868006840F001000B681860002099
:102E4000C6E7000000000140000400400008004008
:102E5000000C004000040140004001400018004008
:102E6000014691F83D00012801D001207047022061
:102E700081F83D000868C06840F001000B68D86028
:102E80001A4B086898421BD00868B0F1804F17D0E1
:102E9000174B0868984213D0164B086898420FD019
:102EA000154B086898420BD0144B0868984207D01D
:102EB000134B0868984203D0124B086898420CD113
:102EC0000868806800F00702062A0CD008680068CD
:102ED00040F001000B68186005E00868006840F0E9
:102EE00001000B6818600020C0E7000000000140EE
:102EF0000004004000080040000C004000040140B5
:102F000000400140001800402DE9F04104460D4604
:102F1000002700BF94F83C00012802D10220BDE840
:102F2000F081012084F83C0000BF022084F83D00BD
:102F30002068866826F0770626F47F46206886603B
:102F40002868502833D00CDC202850D004DC00281E
:102F50004BD0102851D149E0302849D040284CD1DD
:102F600039E060282DD0702807D0B0F5805F03D0FD
:102F7000B0F5005F41D10DE041E0D5E902136A6888
:102F8000206801F030FE2068866846F077062068E9
:102F9000866034E0D5E902136A68206801F023FEF8
:102FA0002068806840F480402168886027E0EA68F3
:102FB0006968206801F008FF5021206801F01EFEBA
:102FC0001DE0EA686968206801F011FF602120684F
:102FD00001F014FE13E0EA686968206801F0F4FE6D
:102FE0004021206801F00AFE09E000BF00BF00BFD9
:102FF0002968206801F002FE01E0012700BF00BF40
:10300000012084F83D0000BF002084F83C0000BF90
:10301000384684E7704710B5044620680069C0F35D
:103020004000D8B12068C068C0F34000B0B16FF074
:10303000020021680861012020772068806900F083
:10304000030018B12046FFF7E5FF05E0204600F039
:103050003BF9204600F0EFF9002020772068006956
:10306000C0F38000D8B12068C068C0F38000B0B160
:103070006FF00400216808610220207720688069D1
:1030800000F4407018B12046FFF7C4FF05E0204669
:1030900000F01AF9204600F0CEF9002020772068D1
:1030A0000069C0F3C000D8B12068C068C0F3C00098
:1030B000B0B16FF008002168086104202077206813
:1030C000C06900F0030018B12046FFF7A3FF05E038
:1030D000204600F0F9F8204600F0ADF900202077F6
:1030E00020680069C0F30010D8B12068C068C0F340
:1030F0000010B0B16FF0100021680861082020773F
:103100002068C06900F4407018B12046FFF782FFC4
:1031100005E0204600F0D8F8204600F08CF90020A9
:1031200020772068006900F0010058B12068C0686D
:1031300000F0010030B16FF0010021680861204605
:1031400000F000FA20680069C0F3C01058B1206890
:10315000C068C0F3C01030B16FF080002168086112
:103160002046FFF71CFD20680069C0F3801058B1AD
:103170002068C068C0F3801030B16FF04000216853
:103180000861204600F0E7F920680069C0F34010AC
:1031900058B12068C068C0F3401030B16FF0200013
:1031A000216808612046FFF7FBFC10BD10B586B012
:1031B0000446142101A8FDF7AAF93C492068884279
:1031C0001ED100BF002000903948006840F0100078
:1031D000374908600846006800F01000009000BF02
:1031E00000BF4815019002200290012003900220A8
:1031F00004900120059001A92E48FEF717FD53E029
:103200002D49206888422DD100BF00200090284819
:10321000006840F00800264908600846006800F091
:103220000800009000BF00BF4FF4804001900220D2
:10323000029001200390032004900220059001A930
:103240001E48FEF7F3FC4FF48050019002200290DC
:103250000020039004900220059001A91748FEF772
:10326000E5FC21E01649206888421DD100BF0020FE
:1032700000900F48006840F020000D4908600846A3
:10328000006800F02000009000BF00BF40200190C7
:103290000220029001200390022004900320059058
:1032A00001A90848FEF7C2FC06B010BD00000140AD
:1032B000303802400010024000080040000C02407C
:1032C000004401400014024070472DE9F0410446DB
:1032D0000D461646002700BF94F83C00012802D195
:1032E0000220BDE8F081012084F83C0000BF36B127
:1032F000042E1BD0082E31D00C2E5ED145E029467D
:10330000206801F085FC2068806940F00800216891
:1033100088612068806920F0040021688861206845
:103320008069296908432168886148E02946206846
:1033300001F0A6FC2068806940F400602168886183
:103340002068806920F48060216888612068806935
:10335000296940EA01202168886130E02946206817
:1033600001F0CCFC2068C06940F008002168C86109
:103370002068C06920F004002168C8612068C06925
:10338000296908432168C86119E02946206801F0CD
:10339000F1FC2068C06940F400602168C8612068C1
:1033A000C06920F480602168C8612068C06929690B
:1033B00040EA01202168C86101E0012700BF00BF89
:1033C00000BF002084F83C0000BF384689E710B5F4
:1033D00004460CB9012010BD94F83D0028B9002026
:1033E00084F83C00204600F025F8022084F83D00D7
:1033F000211D206801F07AFB012084F8460000BFFF
:1034000084F83E0001213F20015540200155412014
:10341000015500BF00BF012084F842004320015540
:10342000442001554520015500BF012084F83D008E
:103430000020D0E77047704770B504460D4615B9B7
:1034400094F83E000BE0042D02D13F20005D06E021
:10345000082D02D14020005D01E04120005D0128DF
:1034600001D0012070BD1DB9022084F83E000EE09D
:10347000042D03D102213F20015508E0082D03D17E
:1034800002214020015502E0022141200155012284
:103490002946206801F096FB23492068884203D022
:1034A00022492068884201D1012000E0002028B193
:1034B0002068406C40F40040216848641A49206844
:1034C00088421BD02068B0F1804F17D0184920687F
:1034D000884213D01749206888420FD016492068C7
:1034E00088420BD011492068884207D013492068D0
:1034F000884203D01249206888420CD12068806835
:1035000000F00706062E0CD02068006840F001008D
:103510002168086005E02068006840F0010021682B
:10352000086000209EE70000000001400004014008
:103530000004004000080040000C00400040014032
:103540000018004010B504462068B0F1804F01D14A
:10355000FEF772FC10BD704770B504460D46144965
:103560002068884204D12946204601F037FF07E051
:1035700010492068884203D12946204601F0E4FE24
:10358000012020632068C06840F010002168C860F6
:103590002068406940F0400021684861A06B0068E5
:1035A000006840F00100A16B0968086070BD000070
:1035B0000048004000100140704700002DE9F84F1E
:1035C0000446206805682068C668206847694FF08F
:1035D0000009CA4605F00F09B9F1000F0AD105F03C
:1035E000200038B106F0200020B1204601F063FC35
:1035F000BDE8F88FB9F1000F7CD007F0010018B9D1
:1036000006F49070002875D005F0010030B106F482
:10361000807018B1206C40F00100206405F00400B7
:1036200030B107F0010018B1206C40F002002064B6
:1036300005F0020030B107F0010018B1206C40F035
:103640000400206405F0080048B106F0200010B91D
:1036500007F0010018B1206C40F008002064206CD5
:10366000002846D005F0200028B106F0200010B157
:10367000204601F020FC20684069C0F3801A206CCD
:1036800000F0080010B9BAF1000F2DD0204601F06B
:10369000CCFB2068406900F04000402820D100BFEA
:1036A00000BF2168143151E8001F21F0400021685B
:1036B000143141E80002002AF3D100BFA06B50B1E1
:1036C0007548A16B0865A06BFEF7E1F888B1A06BA7
:1036D000016D88470DE02046FFF76EFF09E009E025
:1036E0002046FFF769FF04E02046FFF765FF002052
:1036F00020647DE7206B012876D105F010000028BA
:1037000072D006F010000028FAD000BF0020009010
:1037100020680068009020684068009000BF00BFEB
:103720002068406900F0400040285ED1A06B00682E
:1037300040681FFA80F8B8F1000F54D0A08D4045C2
:1037400051DDA4F82E80A06BC069B0F5807F43D016
:1037500000BF00BF21680C3151E8001F21F48070C8
:1037600021680C3141E80002002AF3D100BF00BFFC
:1037700000BF2168143151E8001F21F001002168C9
:10378000143141E80002002AF3D100BF00BF00BF9E
:103790002168143151E8001F21F0400021681431E4
:1037A00041E80002002AF3D100BF202084F83E0047
:1037B0000020206300BF00BF21680C3151E8001FCA
:1037C00021F0100021680C3141E80002002AF3D1F9
:1037D00000BFA06BFEF705F8A08DE28D801A81B2C4
:1037E0002046FFF7B9FE03E740E0A08DE18D401AC7
:1037F0001FFA80F8E08DC0B3B8F1000F35D000BFDC
:1038000000BF21680C3151E8001F21F4907021683D
:103810000C3141E80002002AF3D100BF00BF00BF15
:103820002168143151E8001F21F001002168143192
:1038300041E80002002AF3D100BF202084F83E00B6
:103840000020206300BF00BF21680C3151E8001F39
:1038500021F0100021680C3141E80002002AF3D168
:1038600000BF41462046FFF777FEC1E605F0800025
:1038700030B106F0800018B1204601F0D4FCB7E664
:1038800005F0400030B106F0400018B1204601F0CC
:1038900002FBADE600BFABE6174E000810B50446CC
:1038A0000CB9012010BDA06900B100E000BF94F880
:1038B0003D0028B9002084F83C00204600F028F89C
:1038C000242084F83D002068C06820F4005021685E
:1038D000C860204601F06CFB2068006920F490402D
:1038E000216808612068406920F02A002168486149
:1038F0002068C06840F400502168C860002020643F
:10390000202084F83D0084F83E000020CAE7000033
:1039100010B586B00446142101A8FCF7F8FD7D49D6
:10392000206888427ED100BF002000907A4800685D
:1039300040F01000784908600846006800F0100068
:10394000009000BF00BF00BF0020009072481438F4
:10395000006840F0020070491439086008460068A9
:1039600000F00200009000BF00BF00BF00200090E8
:103970000846006840F0010008600846006800F052
:103980000100009000BF00BF802001900220029043
:1039900000200390032004900720059001A95F48B0
:1039A000FEF744F94FF400700190022002900020CD
:1039B0000390032004900720059001A95848FEF7C2
:1039C00035F95848584908604FF0006048600021B8
:1039D00055488160C1604FF48061016100214161FF
:1039E0008161C16101624162FEF786F808B1FDF7AD
:1039F00086F900BF4C48A063846300BF4948783013
:103A00004A4908604FF000604860402147488160A3
:103A10000021C1604FF48061016100214161816139
:103A2000C16100E014E001624162FEF765F808B18F
:103A3000FDF765F900BF3D486063846300BF002265
:103A400005212520FEF7B6FA2520FEF7A3FA5EE051
:103A50003749206888425AD100BF002000902E4884
:103A6000001F006840F480202B49091F08600846A9
:103A7000006800F48020009000BF00BF00BF00205D
:103A8000009025481438006840F004002249143999
:103A900008600846006800F00400009000BF00BF06
:103AA0004FF4406001900220029000200390032018
:103AB00004900720059001A91E48FEF7B7F81E489C
:103AC0001E4908604FF00060486000211B4881607B
:103AD000C1604FF4806101610021416181614FF457
:103AE0008071C161002101624162FEF705F808B1F1
:103AF000FDF705F900BF1148A063846300BF0022F1
:103B000005212720FEF756FA2720FEF743FA06B0D4
:103B100010BD000000100140443802400004024083
:103B20000000024040640240340D0020940D00204B
:103B3000004800400008024028600240F40D0020C8
:103B400070B504460D46164694F83E00202816D15E
:103B500005B10EB9012070BD00BF94F83C000128EA
:103B600001D10220F7E7012084F83C0000BF0020CB
:103B7000206332462946204601F030FBEBE7022065
:103B8000E9E7000010B50446044802F057FB0122A3
:103B900003490448FFF7D4FF10BD000020010020B6
:103BA00028010020AC0C0020704770B500BF00BF9A
:103BB00000BFFEF73BF905464FF08040466A05EB33
:103BC0004500C0EBC51006EBC004204670BD00BF29
:103BD000FEE710B500BF012001F0E5FFFBE710B5DF
:103BE000FCF7F8FEFCF77CFEFCF7E2FEA820FCF7F1
:103BF000ABFEFCF723FE10BD10B50F480F4908605F
:103C00000320486000210D488160C1604FF41021FD
:103C100001614FF4001141610021017601214176DB
:103C200000218176C17601774177FDF70AFC08B162
:103C3000FDF765F810BD0000006400402C0B00206B
:103C400010B50F480F4908600320486000210D4857
:103C50008160C1604FF4102101614FF40011416196
:103C6000002101760121417600218176C17601771C
:103C70004177FDF7E6FB08B1FDF741F810BD000004
:103C800000680040540B002008B500BF00200090E1
:103C90001A48006840F40010184908600846006897
:103CA00000F40010009000BF00BF00BF0020009093
:103CB0000846006840F4800008600846006800F488
:103CC0008000009000BF00BF002205210C20FEF7FD
:103CD00071F90C20FEF75EF9002205213A20FEF76B
:103CE00069F93A20FEF756F9002205214620FEF731
:103CF00061F94620FEF74EF908BD00003038024059
:103D000000B5BFB01C22364938A8FCF7A4FB00213F
:103D100038A801F059FF334908601C2230491C3192
:103D200031A8FCF798FB002131A801F04DFF2E4986
:103D300008601C222A4938312AA8FCF78CFB002194
:103D40002AA801F041FF294908601C222449543166
:103D500023A8FCF780FB002123A801F035FF2449AC
:103D600008601C221E4970311CA8FCF774FB00215E
:103D70001CA801F029FF1F4908601C2218498C313A
:103D800015A8FCF768FB002115A801F01DFF1A49D2
:103D900008601C221249A8310EA8FCF75CFB002128
:103DA0000EA801F011FF154908601C220C49C4310E
:103DB00007A8FCF750FB002107A801F005FF1049F8
:103DC00008601C220649E0316846FCF744FB0021EC
:103DD000684601F0F9FE0B4908603FB000BD0000E5
:103DE000086F00086C02002070020020740200209E
:103DF000780200207C020020800200208402002043
:103E0000880200208C02002000B587B0142102A88F
:103E1000FCF77DFB00BF002001905D48006840F08A
:103E200002005B4908600846006800F0020001904B
:103E300000BF00BF00BF002001900846006840F0AE
:103E4000010008600846006800F00100019000BF12
:103E500000BF00BF002001900846006840F0080045
:103E600008600846006800F00800019000BF00BF2D
:103E700000BF002001900846006840F00400086080
:103E80000846006800F00400019000BF00BF00BFBA
:103E9000002001900846006840F080000860084655
:103EA000006800F08000019000BF00BF00BF00204C
:103EB00001900846006840F020000860084600684D
:103EC00000F02000019000BF00BF00BF0020019063
:103ED0000846006840F0100008600846006800F0DE
:103EE0001000019000BF00BF012210212948FDF7FA
:103EF00097FF012211462848FDF792FF40200290CB
:103F0000002003900120049002A92448FDF78EFEB2
:103F10002E200290002003900120049002A91D4849
:103F2000FDF784FE102002900120039004900220EF
:103F3000059002A91748FDF779FE302002904FF452
:103F4000041003900120049002A91448FDF76EFEAE
:103F50004FF420500290002003900120049002A909
:103F60000F48FDF763FE01200290039004900220A9
:103F7000059002A90848FDF759FE002205211720E7
:103F8000FEF718F81720FEF705F807B000BD00008F
:103F900030380240000002400004024000080240A5
:103FA0000010024010B50E480E4908604FF48270B0
:103FB000486000210B488160C160016101214161BD
:103FC000490281611021C161002101624162816267
:103FD0000A21C162FEF708FC08B1FCF790FE10BD93
:103FE000003001407C0B002000B587B01C216846E2
:103FF000FCF78DFA154816490860532048600021E7
:104000001348816044F61F61C16000210161816134
:10401000FEF75CFE08B1FCF772FE0D48FFF7D7F91A
:1040200008B1FCF76CFE6020009000200190029027
:104030000490002269460648FFF747F908B1FCF7EB
:104040005EFE0348FFF7B2F807B000BD0044014030
:10405000640C002000B595B00020119012901390D0
:1040600014900F9010901C2108A8FCF750FA202102
:104070006846FCF74CFA2B482B49086053204860EF
:1040800000212948816044F61F61C160002101615F
:1040900041618161FEF71AFE08B1FCF730FE4FF472
:1040A0008050119011A92048FEF72EFF08B1FCF7AF
:1040B00026FE1D48FFF78BF908B1FCF720FE002013
:1040C0000F9010900FA91848FEF7A6FD08B1FCF755
:1040D00016FE60200890002009900A900B900C902A
:1040E0000D900E90002208A90F48FFF7EEF808B1D6
:1040F000FCF705FE002000900190029003900490D0
:104100004FF4005005900020079069460648FEF7DE
:1041100048FD08B1FCF7F3FD0348FFF747F815B079
:1041200000BD000000000140D40B002000B58DB0A0
:10413000002009900A900B900C90079008901C2189
:104140006846FCF7E4F9254825490860A72048603F
:1041500000212348816044F61F61C1600021016194
:104160008161FEF7B3FD08B1FCF7C9FD4FF4805043
:10417000099009A91A48FEF7C7FE08B1FCF7BFFD70
:104180001748FFF724F908B1FCF7B9FD00200790A4
:10419000089007A91248FEF73FFD08B1FCF7AFFDF4
:1041A0006020009000200190029004900022694657
:1041B0000B48FFF78AF808B1FCF7A1FD4FF4FA604D
:1041C0000190082269460648FFF77FF808B1FCF71E
:1041D00096FD0348FEF7EAFF0DB000BD0008004061
:1041E0001C0C002010B50B480B4908604FF4E1305F
:1041F0004860002108488160C16001610C21416173
:1042000000218161C161FFF749FB08B1FCF777FD2F
:1042100010BD000000100140AC0C002010B50A4891
:104220000A4908600A484860002108488160C16066
:1042300001610C21416100218161C161FFF72EFB09
:1042400008B1FCF75CFD10BD00480040F00C0020F8
:10425000A086010000BFFEE7FEF768F800BFFEE79A
:104260000021C160016141619FED0A0A80ED060AEB
:104270009FED080A80ED070A9FED060A80ED080A07
:104280009FED040A80ED090A9FED020A80ED0A0AFB
:104290007047000000000000816A21F00042C2F176
:1042A000FF42D20F52B9816A4FF07F42B2EB410F09
:1042B00001D1012200E00022012A02D1022246217E
:1042C0000A54704770B504460D46164625700748D7
:1042D000E0640748A0642046E16C884731462046E8
:1042E000A26C90474621085570BD0000614200084D
:1042F000F54200080246107800B109B90120704764
:1043000091ED000A82ED0B0A91ED010A82ED0C0A93
:1043100091ED020A82ED0D0A91ED030A82ED0E0A7B
:1043200091ED040A82ED0F0A91ED050A82ED100A63
:104330000020A2F8440000BFE1E7000000BF1148E0
:10434000807A032810D140F6D8600F490968486385
:104350000A20FDF747FC41F270700B490968486379
:104360000A20FDF73FFC08E00648807A022804D1C5
:104370004FF4C8600449096848630A20FDF732FC1D
:10438000DDE700004C020020D40B002010B50446ED
:1043900094ED000AD4ED010A30EE200AD4ED020AB1
:1043A00030EE200ABDEEC00A10EE100A00B2A08165
:1043B00094ED000AB1EE400AD4ED010A30EE200A75
:1043C000D4ED020A30EE200ABDEEC00A10EE100A4B
:1043D00001B2E18194ED000AD4ED010A30EE600AE9
:1043E000D4ED020A30EE200ABDEEC00A10EE100A2B
:1043F00001B2218294ED000AB1EE400AD4ED010A27
:1044000030EE600AD4ED020A30EE200ABDEEC00A9A
:1044100010EE100A01B261824648B0F9060000EBC6
:104420004000400000EE100AB8EEC00A84ED000A19
:104430004048B0F9040000EB4000400000EE100AD4
:10444000B8EEC00A84ED010A3A48B0F9000000EB6A
:104450004000400000EE100AB8EEC00A84ED020AE7
:104460003548B0F90A0001EE100AB8EEC11AF0EEB4
:10447000410AB4F90C0001EE100AB8EEC11AB0EE10
:10448000410A2E4801F03EF9BDEEC00A10EE100AB6
:1044900000B2A0822848B0F9260001EE100AB8EE5A
:1044A000C11AF0EE410AB4F90E0001EE100AB8EE9E
:1044B000C11AB0EE410A224801F024F9BDEEC00A4B
:1044C00010EE100A01B2E1821B48B0F9420001EE81
:1044D000100AB8EEC11AF0EE410AB4F9100001EE6C
:1044E000100AB8EEC11AB0EE410A164801F00AF9F6
:1044F000BDEEC00A10EE100A01B221830E48B0F9D9
:104500005E0001EE100AB8EEC11AF0EE410AB4F9ED
:10451000120001EE100AB8EEC11AB0EE410A0A48C4
:1045200001F0F0F8BDEEC00A10EE100A01B261838E
:1045300010BD00004C0200206C0100203003002060
:1045400080030020D00300202004002010B5044682
:1045500000201B490870A1F801002BE018490978D8
:104560000819052102F0C8F801281CD11448007868
:10457000401C215C12480078801C205C41EA00202D
:1045800009300F49A1F801000A46B2F8011012786B
:10459000101902F091F8012805D109490978081984
:1045A000074900F00FF806480078054949780844A3
:1045B0000349087002480078205CA528CED010BDC1
:1045C0005806002070B505460C46681D00F06EFFC9
:1045D000012807D0A0F20120B8B101287ED006281A
:1045E0007DD1C2E0E879E17860F30301E170E87918
:1045F0000109E07861F30710E07005F1080000F0B0
:1046000055FF81B2E01CA180C1E0E879A071297A50
:10461000E17105F1090000F049FF81B2A01D21817F
:1046200005F10B0000F042FF81B2A01D618105F190
:104630000D0000F03BFF81B2A01DA18105F10F002C
:1046400000F034FF81B2A01DE18105F1110000F0FE
:104650002DFF81B2A01D218205F1130000F026FF7D
:1046600081B2A01D618205F1150000F01FFF81B22B
:10467000A01DA18205F1170000F018FF81B2A01D56
:10468000E18205F1190000F011FF81B2A01D218324
:1046900005F11B0000F00AFF81B2A01D618305F146
:1046A0001D0000F003FF81B2A01DA18305F11F00D2
:1046B00000F0FCFE81B2A01DE18315F8210F20213E
:1046C000095D60F300012020015528784008202171
:1046D000095D60F341012020015501E00AE055E049
:1046E00015F8210980082021095D60F3820120204E
:1046F00001554CE0E81D00F0D9FEA4F8210005F1B9
:10470000090000F0D3FE81B204F12100A4F82310C7
:1047100005F10B0000F0D5FE10EE100AC4F82500DC
:1047200005F10F0000F0C2FE81B204F12100A4F8EF
:10473000291005F1110000F0B9FE81B204F1210049
:10474000A4F82B1005F1130000F0B0FE81B204F1C3
:104750002100A4F82D1005F1150000F0A7FE81B28C
:1047600004F12100A4F82F1011E0E87984F8310059
:10477000297A32200155697A3320015505F10A0062
:1047800000F09FFE10EE100A606300E000BF00BF63
:1047900070BD10B50446E07D322808D818212046A7
:1047A000FBF793FEFA20E0750120A07505E0E07D9F
:1047B000002802DDE07D401EE07510BD00B101B9AA
:1047C00070470278437842EA0322C2F30A020A8061
:1047D0004278D210837842EA4312C2F30A024A8036
:1047E00082789211C37842EA8302037942EA8322F3
:1047F000C2F30A028A8002795210437942EAC31254
:10480000C2F30A02CA80027C437C42EA0322C2F35A
:104810000A020A814279C2F301128A7242791211A4
:104820009308CB728279C37942EA032212B28A8159
:10483000027A437A42EA032213B2CB81827AC37AA4
:1048400042EA032213B20B82037B8B74437BCB744B
:10485000827BC37B42EA03228A820A88A2F58062B5
:1048600012B20A804A88A2F5806212B24A808A880F
:10487000A2F5806212B28A80CA88A2F5806212B262
:10488000CA800A89A2F5806212B20A81FA22CA7528
:1048900000228A7500BF93E77CB504460D46164694
:1048A000164800681821B0FBF1F01549B0FBF1F093
:1048B0004FF47A71484301906068B0F5827F0DD162
:1048C0002B46002280212046009600F01BF898B16C
:1048D000606D40F02000606503207CBD00BF019842
:1048E00000B908E00198401E019020688068C0F37C
:1048F000C0100028F3D100BF0020EEE79402002092
:1049000040420F002DE9F84F04460D4690461E46E2
:10491000DDF82890FDF78AFAA0EB0900371AFDF7B9
:1049200085FA82462C480068C0F3CB30784300906B
:1049300045E0701C002842D0FDF778FAA0EB0A0091
:10494000B84200D2A7BB2068406820F0E000216890
:1049500048606068B0F5827F0DD1A068B0F5004F67
:1049600003D0A068B0F5806F05D12068006820F002
:10497000400021680860A06AB0F5005F0DD100BF5B
:104980002068006820F400502168086020680068F2
:1049900040F400502168086000BF012084F85100F5
:1049A00000BF002084F8500000BF0320BDE8F88F4E
:1049B000FFE7009800B900270098401E009020688B
:1049C00080682840A84201D1012000E00020404535
:1049D000AFD10020EAE700009402002010B500BF2C
:1049E000502080F31188BFF34F8FBFF36F8F00BF4C
:1049F00001F0DEFF18B14FF080500449086000BF9D
:104A0000002080F3118800BF10BD000004ED00E01D
:104A100000B593B0302107A8FBF779FD142102A857
:104A2000FBF775FD00BF002001902548006840F0AD
:104A30008050234908600846006800F080500190CB
:104A400000BF00BF00BF002001901E48006840F476
:104A500080401C4908600846006800F480400190CE
:104A600000BF00BF012007900004089002200D90B5
:104A700041050E9106210F91A8211091022111915B
:104A80000721129107A8FDF761FC08B1FCF737F97F
:104A90000F20029002200390002004904FF4A050B9
:104AA00005904FF480500690052102A8FDF7D6FA34
:104AB00008B1FCF724F9FDF793FB13B000BD00002B
:104AC00040380240007000400348006840F4700025
:104AD000014908607047000088ED00E010B5024809
:104AE000FEF799FA10BD0000540E002010B50268C0
:104AF000294B98420ED0B0F1804F0BD0274B9842F3
:104B000008D0274B984205D0264B984202D0264B1E
:104B1000984203D122F070024B681A431E4B984210
:104B200020D0B0F1804F1DD01C4B98421AD01C4BA6
:104B3000984217D01B4B984214D01B4B984211D06F
:104B40001A4B98420ED01A4B98420BD0194B9842F0
:104B500008D0194B984205D0184B984202D0184BF8
:104B6000984203D122F44072CB681A4322F08003AA
:104B70004C6943EA040202608B68C3620B6883627B
:104B8000054B984202D0084B984201D10B69036350
:104B90000123436110BD00000000014000040040FB
:104BA00000080040000C00400004014000400140AB
:104BB000004401400048014000180040001C004033
:104BC0000020004030B501F01F05012404FA05F370
:104BD000046A9C430462046A01F01F0502FA05F5A9
:104BE0002C43046230BD30B50C46816821F47F410E
:104BF00042EA032525432943816030BD0A46816886
:104C000021F0700142F007031943816070470000F2
:104C100030B5056A25F001050562026A43688469BA
:104C200024F0700424F003040D682C4322F00202E7
:104C30008D682A43104DA84200D103E00F4DA842D1
:104C400006D100BF22F00802CD682A4322F00402F8
:104C5000094DA84202D0094DA84207D123F4807320
:104C600023F400734D692B438D692B4343608461AA
:104C70004D684563026230BD000001400004014000
:104C800030B5056A25F010050562026A436884693B
:104C900024F4E04424F440740D6844EA052422F02E
:104CA00020028D6842EA0512124DA84200D103E0AD
:104CB000114DA84207D100BF22F08002CD6842EA20
:104CC000051222F040020B4DA84202D00A4DA84224
:104CD00009D123F4806323F400634D6943EA85031B
:104CE0008D6943EA8503436084614D688563026290
:104CF00030BD0000000001400004014030B5056AED
:104D000025F480750562026A4368C46924F0700462
:104D100024F003040D682C4322F400728D6842EAEB
:104D20000522124DA84200D103E0114DA84207D13F
:104D300000BF22F40062CD6842EA052222F48062BC
:104D40000A4DA84202D00A4DA84209D123F480534B
:104D500023F400534D6943EA05138D6943EA0513B3
:104D60004360C4614D68C563026230BD000001400C
:104D70000004014030B5056A25F480550562036AD8
:104D80004468C26922F4E04222F440720D6842EAAB
:104D9000052223F400538D6843EA0533084DA842E9
:104DA00002D0084DA84204D124F480444D6944EA5D
:104DB00085144460C2614D680564036230BD000023
:104DC000000001400004014030B50B461446026A61
:104DD000056A25F001050562816921F0F00141EACB
:104DE000041122F00A021A438161026230BD30B51B
:104DF0000B461446056A25F0100505628169026AB2
:104E000021F4704141EA043122F0A00242EA031287
:104E10008161026230BD70B50546AC6B0020E08553
:104E2000E0842046FEF7C8FB70BD00BF00BF0268EB
:104E30000C3252E8002F22F4907102680C3242E8E2
:104E40000013002BF3D100BF00BF00BF0268143273
:104E500052E8002F22F001010268143242E80013E8
:104E6000002BF3D100BF016B01290ED100BF00BFA1
:104E700002680C3252E8002F22F0100102680C3256
:104E800042E80013002BF3D100BF202180F83E1030
:104E900000210163704710B504462068C06820F007
:104EA00040002168C860202084F83D002046FEF7BD
:104EB0007BFE002010BDF8B5044694F83E00222881
:104EC00073D1A068B0F5805F0CD1206950B900257E
:104ED000A66A20684068C0F308003080A06A801C81
:104EE000A06215E0A56A0026A068B0F5805F03D037
:104EF000A06828B9206918B920684068287004E0C3
:104F00002068406800F07F002870A06A401CA06202
:104F1000E08D401E80B2E085002844D12068C06842
:104F200020F020002168C8602068C06820F48070EC
:104F30002168C8602068406920F00100216848614C
:104F4000202084F83E00206B012826D10020206319
:104F500000BF00BF21680C3151E8001F21F0100094
:104F600021680C3141E80002002AF3D100BF20681B
:104F7000006800F0100010280AD100BF0020009047
:104F800020680068009020684068009000BF00BF63
:104F9000A18D2046FEF7E0FA02E02046FEF7F2FD82
:104FA0000020F8BD01E00020FBE70220F9E7000047
:104FB0002DE9F84F04462068006920F44050E1686C
:104FC0000843216808612169A068084361690843B2
:104FD000E169084300902068C06849F20C61884389
:104FE000009908432168C8602068406920F4407037
:104FF000A16908432168486176492068884203D046
:1050000075492068884203D1FDF728F9814602E0FE
:10501000FDF714F98146E069B0F5004F6CD102202C
:105020006168A0FB015003461920A9FB00700146EE
:105030002A463846FBF798F96421B0FBF1F04FEAB5
:10504000001A02206168A0FB01510B461920A9FB40
:1050500000712A463846FBF787F9834602206168CB
:10506000A0FB015003461920A9FB00712A463846CF
:10507000FBF77AF96421B0FBF1F000EBC00101EB22
:105080000010ABEB8000322101EBC0006421B0FBCB
:10509000F1F000F0F8000AEB400A02206168A0FB82
:1050A000015003461920A9FB007001462A463846E4
:1050B000FBF75AF9834602206168A0FB01500346C2
:1050C0001920A9FB00712A463846FBF74DF96421E7
:1050D000B0FBF1F000EBC00101EB0010ABEB800086
:1050E000322101EBC0006421B0FBF1F000F00700B9
:1050F0005044216888606AE004206168A0FB015088
:1051000003461920A9FB007001462A463846FBF7E2
:105110002BF9824604206168A0FB01500346192048
:10512000A9FB007001462A463846FBF71DF96421A9
:10513000B0FBF1F000EBC00101EB0010AAEB800026
:10514000322101EB00106421B0FBF1F000F0F00A15
:1051500004206168A0FB017003461920A9FB0051DF
:105160003A462846FBF700F96421B0FBF1F00AEB60
:10517000001A04206168A0FB01510B461920A9FB0D
:1051800000712A463846FBF7EFF883460420616831
:10519000A0FB015003461920A9FB007001462A46D6
:1051A0003846FBF7E1F86421B0FBF1F000EBC001F9
:1051B00001EB0010ABEB8000322101EB0010642109
:1051C000B0FBF1F000F00F00504421688860BDE8AA
:1051D000F88F0000001001400014014010B5034694
:1051E00099629A85DA8500201864222083F83E00AF
:1051F00000BF002083F83C0000BF186928B1186880
:10520000C06840F480701C68E0601868406940F035
:1052100001001C6860611868C06840F020001C68CC
:10522000E060002010BD014691F83D00212828D102
:105230008868B0F5805F0BD1086948B90A6A1088A0
:10524000C0F308000B685860086A801C086205E01B
:105250000B6A581C086218780B685860C88C401E8E
:1052600080B2C88458B90868C06820F080000B6814
:10527000D8600868C06840F040000B68D860002023
:1052800070470220FCE7000010B50248FEF796F9CF
:1052900010BD0000AC0C002010B50248FEF78EF9DE
:1052A00010BD0000F00C002070B5049C01250563C2
:1052B0002425858505686D6945F04005066875619A
:1052C0000568ED6845F010050668F56000BF856B60
:1052D0002D682D6825F00105866B36683560856B75
:1052E0002D682D6805F00105002DF0D1856B2D6826
:1052F000A960856B2D68EA60856B2D682B61856BD5
:105300002D686C60856B2D682D6845F48025866B53
:1053100036683560856B2D682D6845F00105866B14
:105320003668356070BD38B504460CB1206800B9E8
:1053300038BD002000906B4604F11C02211D20683E
:10534000FBF75DFD00BFF3E770B504460D46A06BAB
:105350000068006800F40020E8B9A06B00680068ED
:1053600020F00100A16B09680860A06B006800686C
:1053700040F40020A16B096808606420A16B0968F3
:1053800048600A2D26D31448FFF7E0F8642112483C
:10539000FBF79BF81EE0A06B0068006820F001009E
:1053A000A16B09680860A06B0068006820F4002009
:1053B000A16B096808606420A16B096848600A2D28
:1053C00008D305486430FFF7C1F86421024864300F
:1053D000FBF77BF870BD00009005002070B5044617
:1053E0000D46A06B0068006800F40020D0B9A06BE7
:1053F0000068006820F00100A16B09680860A06BDC
:105400000068006840F40020A16B0968086024204F
:10541000A16B09684860122D1FD110491048FFF791
:10542000CDF91AE0A06B0068006820F00100A16BC4
:1054300009680860A06B0068006820F40020A16B78
:10544000096808602420A16B09684860122D04D106
:10545000024903482430FFF7B1F970BD4C02002027
:105460009006002000BFFEE700BF012000F09BFB7C
:10547000FBE7000002480068C0F30220704700000C
:105480000CED00E010B5002804DB0A07130E054AF6
:10549000135406E00A07140E034A00F00F031B1F03
:1054A000D45410BD00E400E018ED00E008B501465A
:1054B00008788DF8000048788DF80100BDF90000EB
:1054C00008BD08B501788DF8001041788DF80110FD
:1054D00081788DF80210C1788DF803109DED000AD7
:1054E00008BD000070B52DED028B0446F0EE408A39
:1054F0000D469FED420AB0EE408AE07E012807D0BB
:10550000A08920829FED3D0A84ED010A0120E0760A
:10551000B4F90C00B4F91010401A00EE100AB8EEFD
:10552000C00AB0EE408A00EE105AB8EE400AF6EE1D
:10553000000A20EE200AB4EEC80AF1EE10FA16D2E4
:1055400000EE105AB8EE400A78EE400A00EE105A0B
:10555000B8EE400A20EE280A80EE801A94ED010A87
:10556000DFED270A01EE200A84ED010A34E06842EB
:1055700000EE100AB8EEC00AF6EE000A20EE200A8D
:10558000B4EEC80AF1EE10FA16DD00EE105AB8EECD
:10559000400A78EE000A00EE105AB8EE400A20EEFB
:1055A000280A80EE801A94ED010ADFED150A01EE5B
:1055B000200A84ED010A0FE000EE105AB8EE400A0E
:1055C00020EE280AC8EE000A94ED010A9FED0C1A9D
:1055D00000EE810A84ED010AA0892082D4ED010A3F
:1055E000B0EE600A9FED071ADFED070A00F0A2F99E
:1055F00094ED010ABDEC028B70BD000000000000BC
:105600000000B44300003443000034C3F0EE400A0D
:105610009FED3A0AB0EE401A9FED380AF0EE401ABC
:1056200010B99FED360A7047C27E012A07D08289E1
:1056300002829FED320A80ED010A0122C276B0F9A2
:105640000C20B0F910309A420CDAB0F90C20B0F905
:105650001030D21A0A4400EE102AB8EEC00AB0EE9A
:10566000401A11E0B0F90C20B0F910309A420BDD6D
:10567000B0F90C20B0F91030D21A521A00EE102AEC
:10568000B8EEC00AB0EE401AB0F90C20B0F91030F4
:10569000D21A00EE102AB8EEC00AF0EE401A828943
:1056A0000282B0EEC10AB0EEE12AB4EEC20AF1EE17
:1056B00010FA10DD00EE101AB8EE400A20EE200AB3
:1056C00081EE802A90ED010ADFED0D2A02EE220A1A
:1056D00080ED010A0FE000EE101AB8EE400A20EE4D
:1056E000200A81EE002A90ED010ADFED052A02EE84
:1056F000220A80ED010A90ED010A94E70000000003
:105700000000B44310B52DED028B0446B0EE408A84
:10571000F0EE608A2046FEF7BFFD4620005D38B1FE
:105720002046E16C88479FED820ABDEC028B10BDDC
:1057300084ED018AC4ED028A94ED040A84ED050A21
:1057400094ED030A84ED040A94ED010AD4ED020AF3
:1057500030EE600A84ED030A94ED030AB0EEC00A4D
:10576000D4ED0E0AB4EEE00AF1EE10FA7EDB2078FA
:1057700001287CD194ED0C0AB5EEC00AF1EE10FAC6
:1057800008D094ED060AD4ED030A30EE200A84ED29
:10579000060A03E09FED660A84ED060A00BF94ED59
:1057A000060AD4ED0F0AB4EEE00AF1EE10FA04DDB9
:1057B00094ED0F0A84ED060A10E094ED060AD4ED8C
:1057C0000F0AF1EE600AB4EEE00AF1EE10FA05D22B
:1057D00094ED0F0AB1EE400A84ED060A00BF94ED85
:1057E0000B0AD4ED030A20EE200A84ED070A94ED9B
:1057F0000C0AD4ED060A20EE200A84ED080A94ED86
:10580000030AD4ED040A30EE600AD4ED0D0A20EE4E
:10581000200A84ED090A94ED070AD4ED080A30EE57
:10582000200AD4ED090A30EE200A84ED0A0A00BFEE
:1058300094ED0A0AD4ED100AB4EEE00AF1EE10FA83
:1058400004DD94ED100A84ED0A0A13E094ED0A0ACF
:10585000D4ED100AF1EE600AB4EEE00AF1EE10FAAF
:1058600008D294ED100AB1EE400A01E05DE002E0DA
:1058700084ED0A0A59E02078022856D194ED030AF3
:10588000D4ED040A30EE600AD4ED0B0A20EE200AB3
:1058900084ED070A94ED0C0AD4ED030A20EE200AE9
:1058A00084ED080A94ED030AD4ED040AB0EE001A60
:1058B00001EE600AD4ED050A30EE200AD4ED0D0A9F
:1058C00020EE200A84ED090A94ED070AD4ED080AB7
:1058D00030EE200AD4ED090A30EE200AD4ED0A0A8F
:1058E00030EE200A84ED0A0A00BF94ED0A0AD4EDD6
:1058F000100AB4EEE00AF1EE10FA04DD94ED100A9D
:1059000084ED0A0A10E094ED0A0AD4ED100AF1EED3
:10591000600AB4EEE00AF1EE10FA05D294ED100A36
:10592000B1EE400A84ED0A0A00BF94ED0A0AFCE6D3
:1059300000000000B4EEE01AF1EE10FA00D2704759
:1059400071EE601AB4EEC10AF1EE10FA0ADD00BF82
:1059500030EE612AB0EE420AB4EEC10AF1EE10FA5E
:10596000F6DC0EE0B4EEE00AF1EE10FA09D200BF68
:1059700030EE212AB0EE420AB4EEE00AF1EE10FA5F
:10598000F6D300BFDBE7000030B5034613B94FF68E
:10599000FF7030BD09E013F8014B82EA0400C0B289
:1059A000054D35F8100080EA2222081EA1F1010100
:1059B000F1D11046EDE70000086D000830B5034650
:1059C00005E013F8010B80EA02040448025D081E9A
:1059D000A1F10101F5D1104630BD0000076C0008AF
:1059E00070B506460D46144630682168884200D0DE
:1059F00070BDA879A0736878297840EA012000B2C8
:105A0000A081E878A97840EA012000B26081687935
:105A1000297940EA012000B22081207E30B101289E
:105A200018D002280CD003282DD11DE04FF40051CE
:105A3000B7EE000A2046FFF7E9FD84ED010A23E0F6
:105A40004FF400519FED120A2046FFF74BFD84ED05
:105A5000010A19E04FF400519FED0E0A2046FFF7AE
:105A600041FD84ED010A0FE0B4F90C0000EE900A4C
:105A7000F8EEE00AB0EE600A13212046FFF732FD8F
:105A800084ED010A00E0B3E700BF00BFB0E700000B
:105A9000000010422CA09941FBF788F900BF1F4875
:105AA000FBF736F91E48C07A012805D100201B49B2
:105AB000888100211948C18100BF1848B0F9080049
:105AC000B0F57A7F04DD4FF47A701449088109E05B
:105AD0001248B0F9080010F10A0F03DA6FF009005C
